{
  "_format": "hh-sol-artifact-1",
  "contractName": "EcoRewardSystem",
  "sourceName": "contracts/EcoRewardSystem.sol",
  "abi": [
    {
      "inputs": [],
      "stateMutability": "nonpayable",
      "type": "constructor"
    },
    {
      "anonymous": false,
      "inputs": [
        {
          "indexed": false,
          "internalType": "uint256",
          "name": "id",
          "type": "uint256"
        },
        {
          "indexed": false,
          "internalType": "string",
          "name": "description",
          "type": "string"
        },
        {
          "indexed": false,
          "internalType": "address",
          "name": "proposer",
          "type": "address"
        }
      ],
      "name": "ActionValidated",
      "type": "event"
    },
    {
      "anonymous": false,
      "inputs": [
        {
          "indexed": true,
          "internalType": "address",
          "name": "voter",
          "type": "address"
        },
        {
          "indexed": false,
          "internalType": "uint256",
          "name": "amount",
          "type": "uint256"
        }
      ],
      "name": "VoterPaid",
      "type": "event"
    },
    {
      "inputs": [
        {
          "internalType": "uint256",
          "name": "actionId",
          "type": "uint256"
        }
      ],
      "name": "ActionsByActionId",
      "outputs": [
        {
          "components": [
            {
              "internalType": "uint256",
              "name": "id",
              "type": "uint256"
            },
            {
              "internalType": "address payable",
              "name": "proposer",
              "type": "address"
            },
            {
              "internalType": "string",
              "name": "description",
              "type": "string"
            },
            {
              "internalType": "uint256",
              "name": "rewardPoints",
              "type": "uint256"
            },
            {
              "internalType": "uint256",
              "name": "voteCount",
              "type": "uint256"
            },
            {
              "internalType": "bool",
              "name": "validated",
              "type": "bool"
            },
            {
              "internalType": "address[]",
              "name": "voters",
              "type": "address[]"
            }
          ],
          "internalType": "struct EcoRewardSystem.Action",
          "name": "",
          "type": "tuple"
        }
      ],
      "stateMutability": "view",
      "type": "function"
    },
    {
      "inputs": [],
      "name": "AllActionsList",
      "outputs": [
        {
          "components": [
            {
              "internalType": "uint256",
              "name": "id",
              "type": "uint256"
            },
            {
              "internalType": "address payable",
              "name": "proposer",
              "type": "address"
            },
            {
              "internalType": "string",
              "name": "description",
              "type": "string"
            },
            {
              "internalType": "uint256",
              "name": "rewardPoints",
              "type": "uint256"
            },
            {
              "internalType": "uint256",
              "name": "voteCount",
              "type": "uint256"
            },
            {
              "internalType": "bool",
              "name": "validated",
              "type": "bool"
            },
            {
              "internalType": "address[]",
              "name": "voters",
              "type": "address[]"
            }
          ],
          "internalType": "struct EcoRewardSystem.Action[]",
          "name": "",
          "type": "tuple[]"
        }
      ],
      "stateMutability": "view",
      "type": "function"
    },
    {
      "inputs": [],
      "name": "VOTE_THRESHOLD",
      "outputs": [
        {
          "internalType": "uint256",
          "name": "",
          "type": "uint256"
        }
      ],
      "stateMutability": "view",
      "type": "function"
    },
    {
      "inputs": [
        {
          "internalType": "uint256",
          "name": "actionId",
          "type": "uint256"
        }
      ],
      "name": "VotesByActionId",
      "outputs": [
        {
          "internalType": "address[]",
          "name": "",
          "type": "address[]"
        }
      ],
      "stateMutability": "view",
      "type": "function"
    },
    {
      "inputs": [
        {
          "internalType": "address",
          "name": "voter",
          "type": "address"
        }
      ],
      "name": "VotesByAdresse",
      "outputs": [
        {
          "internalType": "uint256[]",
          "name": "",
          "type": "uint256[]"
        }
      ],
      "stateMutability": "view",
      "type": "function"
    },
    {
      "inputs": [],
      "name": "actionCounter",
      "outputs": [
        {
          "internalType": "uint256",
          "name": "",
          "type": "uint256"
        }
      ],
      "stateMutability": "view",
      "type": "function"
    },
    {
      "inputs": [
        {
          "internalType": "uint256",
          "name": "",
          "type": "uint256"
        }
      ],
      "name": "actions",
      "outputs": [
        {
          "internalType": "uint256",
          "name": "id",
          "type": "uint256"
        },
        {
          "internalType": "address payable",
          "name": "proposer",
          "type": "address"
        },
        {
          "internalType": "string",
          "name": "description",
          "type": "string"
        },
        {
          "internalType": "uint256",
          "name": "rewardPoints",
          "type": "uint256"
        },
        {
          "internalType": "uint256",
          "name": "voteCount",
          "type": "uint256"
        },
        {
          "internalType": "bool",
          "name": "validated",
          "type": "bool"
        }
      ],
      "stateMutability": "view",
      "type": "function"
    },
    {
      "inputs": [],
      "name": "admin",
      "outputs": [
        {
          "internalType": "address",
          "name": "",
          "type": "address"
        }
      ],
      "stateMutability": "view",
      "type": "function"
    },
    {
      "inputs": [
        {
          "internalType": "address",
          "name": "_address",
          "type": "address"
        }
      ],
      "name": "checkRewardsBalance",
      "outputs": [
        {
          "internalType": "uint256",
          "name": "",
          "type": "uint256"
        }
      ],
      "stateMutability": "view",
      "type": "function"
    },
    {
      "inputs": [
        {
          "internalType": "uint256",
          "name": "actionId",
          "type": "uint256"
        },
        {
          "internalType": "address",
          "name": "_address",
          "type": "address"
        },
        {
          "internalType": "uint256",
          "name": "amount",
          "type": "uint256"
        }
      ],
      "name": "payVotersAndProposer",
      "outputs": [],
      "stateMutability": "nonpayable",
      "type": "function"
    },
    {
      "inputs": [
        {
          "internalType": "string",
          "name": "description",
          "type": "string"
        },
        {
          "internalType": "address payable",
          "name": "_address",
          "type": "address"
        },
        {
          "internalType": "uint256",
          "name": "greencoin",
          "type": "uint256"
        }
      ],
      "name": "proposeAction",
      "outputs": [],
      "stateMutability": "nonpayable",
      "type": "function"
    },
    {
      "inputs": [
        {
          "internalType": "address",
          "name": "",
          "type": "address"
        }
      ],
      "name": "rewardsBalance",
      "outputs": [
        {
          "internalType": "uint256",
          "name": "",
          "type": "uint256"
        }
      ],
      "stateMutability": "view",
      "type": "function"
    },
    {
      "inputs": [
        {
          "internalType": "uint256",
          "name": "actionId",
          "type": "uint256"
        },
        {
          "internalType": "address payable",
          "name": "_address",
          "type": "address"
        }
      ],
      "name": "voteForAction",
      "outputs": [],
      "stateMutability": "nonpayable",
      "type": "function"
    },
    {
      "inputs": [
        {
          "internalType": "uint256",
          "name": "",
          "type": "uint256"
        },
        {
          "internalType": "address",
          "name": "",
          "type": "address"
        }
      ],
      "name": "votes",
      "outputs": [
        {
          "internalType": "bool",
          "name": "",
          "type": "bool"
        }
      ],
      "stateMutability": "view",
      "type": "function"
    },
    {
      "stateMutability": "payable",
      "type": "receive"
    }
  ],
  "bytecode": "0x60806040526000600155348015601457600080fd5b50336000806101000a81548173ffffffffffffffffffffffffffffffffffffffff021916908373ffffffffffffffffffffffffffffffffffffffff1602179055506126b2806100646000396000f3fe6080604052600436106100e15760003560e01c8063896bdac81161007f578063d23254b411610059578063d23254b414610308578063d58f7f1514610345578063f851a4401461036e578063fdbd98b014610399576100e8565b8063896bdac814610263578063a0ef4d0e146102a0578063cd73b12b146102cb576100e8565b80636e6b1bcb116100bb5780636e6b1bcb1461019057806380dd008a146101b957806383240f83146101f65780638886d42f14610238576100e8565b8063397174a2146100ed57806364a4134c1461011657806367736bb014610153576100e8565b366100e857005b600080fd5b3480156100f957600080fd5b50610114600480360381019061010f9190611554565b6103c4565b005b34801561012257600080fd5b5061013d60048036038101906101389190611594565b61081d565b60405161014a9190611691565b60405180910390f35b34801561015f57600080fd5b5061017a600480360381019061017591906116df565b61091a565b60405161018791906117ca565b60405180910390f35b34801561019c57600080fd5b506101b760048036038101906101b29190611932565b610acd565b005b3480156101c557600080fd5b506101e060048036038101906101db9190611594565b610c0c565b6040516101ed9190611b5c565b60405180910390f35b34801561020257600080fd5b5061021d60048036038101906102189190611594565b610e41565b60405161022f96959493929190611bf5565b60405180910390f35b34801561024457600080fd5b5061024d610f32565b60405161025a9190611dc2565b60405180910390f35b34801561026f57600080fd5b5061028a600480360381019061028591906116df565b6111b0565b6040516102979190611de4565b60405180910390f35b3480156102ac57600080fd5b506102b56111c8565b6040516102c29190611de4565b60405180910390f35b3480156102d757600080fd5b506102f260048036038101906102ed91906116df565b6111cd565b6040516102ff9190611de4565b60405180910390f35b34801561031457600080fd5b5061032f600480360381019061032a9190611dff565b611216565b60405161033c9190611e3f565b60405180910390f35b34801561035157600080fd5b5061036c60048036038101906103679190611e5a565b611245565b005b34801561037a57600080fd5b50610383611386565b6040516103909190611ebc565b60405180910390f35b3480156103a557600080fd5b506103ae6113aa565b6040516103bb9190611de4565b60405180910390f35b60008054906101000a900473ffffffffffffffffffffffffffffffffffffffff1673ffffffffffffffffffffffffffffffffffffffff168173ffffffffffffffffffffffffffffffffffffffff1603610452576040517f08c379a000000000000000000000000000000000000000000000000000000000815260040161044990611f23565b60405180910390fd5b60006003600084815260200190815260200160002060000154036104ab576040517f08c379a00000000000000000000000000000000000000000000000000000000081526004016104a290611f8f565b60405180910390fd5b6004600083815260200190815260200160002060008273ffffffffffffffffffffffffffffffffffffffff1673ffffffffffffffffffffffffffffffffffffffff16815260200190815260200160002060009054906101000a900460ff1615610549576040517f08c379a000000000000000000000000000000000000000000000000000000000815260040161054090612021565b60405180910390fd5b6003600083815260200190815260200160002060050160009054906101000a900460ff16156105ad576040517f08c379a00000000000000000000000000000000000000000000000000000000081526004016105a49061208d565b60405180910390fd5b60016004600084815260200190815260200160002060008373ffffffffffffffffffffffffffffffffffffffff1673ffffffffffffffffffffffffffffffffffffffff16815260200190815260200160002060006101000a81548160ff02191690831515021790555060036000838152602001908152602001600020600401600081548092919061063d906120dc565b919050555060036000838152602001908152602001600020600601819080600181540180825580915050600190039060005260206000200160009091909190916101000a81548173ffffffffffffffffffffffffffffffffffffffff021916908373ffffffffffffffffffffffffffffffffffffffff160217905550600380600084815260200190815260200160002060040154106108195760016003600084815260200190815260200160002060050160006101000a81548160ff0219169083151502179055506003600083815260200190815260200160002060030154600260008060009054906101000a900473ffffffffffffffffffffffffffffffffffffffff1673ffffffffffffffffffffffffffffffffffffffff1673ffffffffffffffffffffffffffffffffffffffff168152602001908152602001600020600082825461078b9190612124565b925050819055507fba0ef4bed83a78c76584b05e145a6807ae3d84040f23e412d8d34633aa9ed92482600360008581526020019081526020016000206002016003600086815260200190815260200160002060010160009054906101000a900473ffffffffffffffffffffffffffffffffffffffff16604051610810939291906122b0565b60405180910390a15b5050565b60606000600360008481526020019081526020016000206000015403610878576040517f08c379a000000000000000000000000000000000000000000000000000000000815260040161086f90611f8f565b60405180910390fd5b6003600083815260200190815260200160002060060180548060200260200160405190810160405280929190818152602001828054801561090e57602002820191906000526020600020905b8160009054906101000a900473ffffffffffffffffffffffffffffffffffffffff1673ffffffffffffffffffffffffffffffffffffffff16815260200190600101908083116108c4575b50505050509050919050565b6060600060015467ffffffffffffffff81111561093a57610939611807565b5b6040519080825280602002602001820160405280156109685781602001602082028036833780820191505090505b509050600080600190505b6001548111610a21576004600082815260200190815260200160002060008673ffffffffffffffffffffffffffffffffffffffff1673ffffffffffffffffffffffffffffffffffffffff16815260200190815260200160002060009054906101000a900460ff1615610a0e57808383815181106109f3576109f26122ee565b5b6020026020010181815250508180610a0a906120dc565b9250505b8080610a19906120dc565b915050610973565b5060008167ffffffffffffffff811115610a3e57610a3d611807565b5b604051908082528060200260200182016040528015610a6c5781602001602082028036833780820191505090505b50905060005b82811015610ac157838181518110610a8d57610a8c6122ee565b5b6020026020010151828281518110610aa857610aa76122ee565b5b6020026020010181815250508080600101915050610a72565b50809350505050919050565b60016000815480929190610ae0906120dc565b919050555060606040518060e0016040528060015481526020018473ffffffffffffffffffffffffffffffffffffffff16815260200185815260200183815260200160008152602001600015158152602001828152506003600060015481526020019081526020016000206000820151816000015560208201518160010160006101000a81548173ffffffffffffffffffffffffffffffffffffffff021916908373ffffffffffffffffffffffffffffffffffffffff1602179055506040820151816002019081610bb191906124aa565b50606082015181600301556080820151816004015560a08201518160050160006101000a81548160ff02191690831515021790555060c0820151816006019080519060200190610c029291906113b0565b5090505050505050565b610c1461143a565b6000600360008481526020019081526020016000206000015403610c6d576040517f08c379a0000000000000000000000000000000000000000000000000000000008152600401610c6490611f8f565b60405180910390fd5b600360008381526020019081526020016000206040518060e0016040529081600082015481526020016001820160009054906101000a900473ffffffffffffffffffffffffffffffffffffffff1673ffffffffffffffffffffffffffffffffffffffff1673ffffffffffffffffffffffffffffffffffffffff168152602001600282018054610cfb90612187565b80601f0160208091040260200160405190810160405280929190818152602001828054610d2790612187565b8015610d745780601f10610d4957610100808354040283529160200191610d74565b820191906000526020600020905b815481529060010190602001808311610d5757829003601f168201915b5050505050815260200160038201548152602001600482015481526020016005820160009054906101000a900460ff1615151515815260200160068201805480602002602001604051908101604052809291908181526020018280548015610e3157602002820191906000526020600020905b8160009054906101000a900473ffffffffffffffffffffffffffffffffffffffff1673ffffffffffffffffffffffffffffffffffffffff1681526020019060010190808311610de7575b5050505050815250509050919050565b60036020528060005260406000206000915090508060000154908060010160009054906101000a900473ffffffffffffffffffffffffffffffffffffffff1690806002018054610e9090612187565b80601f0160208091040260200160405190810160405280929190818152602001828054610ebc90612187565b8015610f095780601f10610ede57610100808354040283529160200191610f09565b820191906000526020600020905b815481529060010190602001808311610eec57829003601f168201915b5050505050908060030154908060040154908060050160009054906101000a900460ff16905086565b6060600060015467ffffffffffffffff811115610f5257610f51611807565b5b604051908082528060200260200182016040528015610f8b57816020015b610f7861143a565b815260200190600190039081610f705790505b5090506000600190505b60015481116111a857600360008281526020019081526020016000206040518060e0016040529081600082015481526020016001820160009054906101000a900473ffffffffffffffffffffffffffffffffffffffff1673ffffffffffffffffffffffffffffffffffffffff1673ffffffffffffffffffffffffffffffffffffffff16815260200160028201805461102c90612187565b80601f016020809104026020016040519081016040528092919081815260200182805461105890612187565b80156110a55780601f1061107a576101008083540402835291602001916110a5565b820191906000526020600020905b81548152906001019060200180831161108857829003601f168201915b5050505050815260200160038201548152602001600482015481526020016005820160009054906101000a900460ff161515151581526020016006820180548060200260200160405190810160405280929190818152602001828054801561116257602002820191906000526020600020905b8160009054906101000a900473ffffffffffffffffffffffffffffffffffffffff1673ffffffffffffffffffffffffffffffffffffffff1681526020019060010190808311611118575b50505050508152505082600183611179919061257c565b8151811061118a576111896122ee565b5b602002602001018190525080806111a0906120dc565b915050610f95565b508091505090565b60026020528060005260406000206000915090505481565b600381565b6000600260008373ffffffffffffffffffffffffffffffffffffffff1673ffffffffffffffffffffffffffffffffffffffff168152602001908152602001600020549050919050565b60046020528160005260406000206020528060005260406000206000915091509054906101000a900460ff1681565b6003600084815260200190815260200160002060050160009054906101000a900460ff166112a8576040517f08c379a000000000000000000000000000000000000000000000000000000000815260040161129f906125fc565b60405180910390fd5b80600260008060009054906101000a900473ffffffffffffffffffffffffffffffffffffffff1673ffffffffffffffffffffffffffffffffffffffff1673ffffffffffffffffffffffffffffffffffffffff16815260200190815260200160002060008282546113189190612124565b9250508190555060028161132c919061264b565b600260008473ffffffffffffffffffffffffffffffffffffffff1673ffffffffffffffffffffffffffffffffffffffff168152602001908152602001600020600082825461137a9190612124565b92505081905550505050565b60008054906101000a900473ffffffffffffffffffffffffffffffffffffffff1681565b60015481565b828054828255906000526020600020908101928215611429579160200282015b828111156114285782518260006101000a81548173ffffffffffffffffffffffffffffffffffffffff021916908373ffffffffffffffffffffffffffffffffffffffff160217905550916020019190600101906113d0565b5b509050611436919061148f565b5090565b6040518060e0016040528060008152602001600073ffffffffffffffffffffffffffffffffffffffff168152602001606081526020016000815260200160008152602001600015158152602001606081525090565b5b808211156114a8576000816000905550600101611490565b5090565b6000604051905090565b600080fd5b600080fd5b6000819050919050565b6114d3816114c0565b81146114de57600080fd5b50565b6000813590506114f0816114ca565b92915050565b600073ffffffffffffffffffffffffffffffffffffffff82169050919050565b6000611521826114f6565b9050919050565b61153181611516565b811461153c57600080fd5b50565b60008135905061154e81611528565b92915050565b6000806040838503121561156b5761156a6114b6565b5b6000611579858286016114e1565b925050602061158a8582860161153f565b9150509250929050565b6000602082840312156115aa576115a96114b6565b5b60006115b8848285016114e1565b91505092915050565b600081519050919050565b600082825260208201905092915050565b6000819050602082019050919050565b60006115f8826114f6565b9050919050565b611608816115ed565b82525050565b600061161a83836115ff565b60208301905092915050565b6000602082019050919050565b600061163e826115c1565b61164881856115cc565b9350611653836115dd565b8060005b8381101561168457815161166b888261160e565b975061167683611626565b925050600181019050611657565b5085935050505092915050565b600060208201905081810360008301526116ab8184611633565b905092915050565b6116bc816115ed565b81146116c757600080fd5b50565b6000813590506116d9816116b3565b92915050565b6000602082840312156116f5576116f46114b6565b5b6000611703848285016116ca565b91505092915050565b600081519050919050565b600082825260208201905092915050565b6000819050602082019050919050565b611741816114c0565b82525050565b60006117538383611738565b60208301905092915050565b6000602082019050919050565b60006117778261170c565b6117818185611717565b935061178c83611728565b8060005b838110156117bd5781516117a48882611747565b97506117af8361175f565b925050600181019050611790565b5085935050505092915050565b600060208201905081810360008301526117e4818461176c565b905092915050565b600080fd5b600080fd5b6000601f19601f8301169050919050565b7f4e487b7100000000000000000000000000000000000000000000000000000000600052604160045260246000fd5b61183f826117f6565b810181811067ffffffffffffffff8211171561185e5761185d611807565b5b80604052505050565b60006118716114ac565b905061187d8282611836565b919050565b600067ffffffffffffffff82111561189d5761189c611807565b5b6118a6826117f6565b9050602081019050919050565b82818337600083830152505050565b60006118d56118d084611882565b611867565b9050828152602081018484840111156118f1576118f06117f1565b5b6118fc8482856118b3565b509392505050565b600082601f830112611919576119186117ec565b5b81356119298482602086016118c2565b91505092915050565b60008060006060848603121561194b5761194a6114b6565b5b600084013567ffffffffffffffff811115611969576119686114bb565b5b61197586828701611904565b93505060206119868682870161153f565b9250506040611997868287016114e1565b9150509250925092565b6119aa81611516565b82525050565b600081519050919050565b600082825260208201905092915050565b60005b838110156119ea5780820151818401526020810190506119cf565b60008484015250505050565b6000611a01826119b0565b611a0b81856119bb565b9350611a1b8185602086016119cc565b611a24816117f6565b840191505092915050565b60008115159050919050565b611a4481611a2f565b82525050565b600082825260208201905092915050565b6000611a66826115c1565b611a708185611a4a565b9350611a7b836115dd565b8060005b83811015611aac578151611a93888261160e565b9750611a9e83611626565b925050600181019050611a7f565b5085935050505092915050565b600060e083016000830151611ad16000860182611738565b506020830151611ae460208601826119a1565b5060408301518482036040860152611afc82826119f6565b9150506060830151611b116060860182611738565b506080830151611b246080860182611738565b5060a0830151611b3760a0860182611a3b565b5060c083015184820360c0860152611b4f8282611a5b565b9150508091505092915050565b60006020820190508181036000830152611b768184611ab9565b905092915050565b611b87816114c0565b82525050565b611b9681611516565b82525050565b600082825260208201905092915050565b6000611bb8826119b0565b611bc28185611b9c565b9350611bd28185602086016119cc565b611bdb816117f6565b840191505092915050565b611bef81611a2f565b82525050565b600060c082019050611c0a6000830189611b7e565b611c176020830188611b8d565b8181036040830152611c298187611bad565b9050611c386060830186611b7e565b611c456080830185611b7e565b611c5260a0830184611be6565b979650505050505050565b600081519050919050565b600082825260208201905092915050565b6000819050602082019050919050565b600060e083016000830151611ca16000860182611738565b506020830151611cb460208601826119a1565b5060408301518482036040860152611ccc82826119f6565b9150506060830151611ce16060860182611738565b506080830151611cf46080860182611738565b5060a0830151611d0760a0860182611a3b565b5060c083015184820360c0860152611d1f8282611a5b565b9150508091505092915050565b6000611d388383611c89565b905092915050565b6000602082019050919050565b6000611d5882611c5d565b611d628185611c68565b935083602082028501611d7485611c79565b8060005b85811015611db05784840389528151611d918582611d2c565b9450611d9c83611d40565b925060208a01995050600181019050611d78565b50829750879550505050505092915050565b60006020820190508181036000830152611ddc8184611d4d565b905092915050565b6000602082019050611df96000830184611b7e565b92915050565b60008060408385031215611e1657611e156114b6565b5b6000611e24858286016114e1565b9250506020611e35858286016116ca565b9150509250929050565b6000602082019050611e546000830184611be6565b92915050565b600080600060608486031215611e7357611e726114b6565b5b6000611e81868287016114e1565b9350506020611e92868287016116ca565b9250506040611ea3868287016114e1565b9150509250925092565b611eb6816115ed565b82525050565b6000602082019050611ed16000830184611ead565b92915050565b7f5468652061646d696e2063616e6e6f7420766f74650000000000000000000000600082015250565b6000611f0d601583611b9c565b9150611f1882611ed7565b602082019050919050565b60006020820190508181036000830152611f3c81611f00565b9050919050565b7f416374696f6e20646f6573206e6f742065786973740000000000000000000000600082015250565b6000611f79601583611b9c565b9150611f8482611f43565b602082019050919050565b60006020820190508181036000830152611fa881611f6c565b9050919050565b7f596f75206861766520616c726561647920766f74656420666f7220746869732060008201527f616374696f6e0000000000000000000000000000000000000000000000000000602082015250565b600061200b602683611b9c565b915061201682611faf565b604082019050919050565b6000602082019050818103600083015261203a81611ffe565b9050919050565b7f416374696f6e20697320616c72656164792076616c6964617465640000000000600082015250565b6000612077601b83611b9c565b915061208282612041565b602082019050919050565b600060208201905081810360008301526120a68161206a565b9050919050565b7f4e487b7100000000000000000000000000000000000000000000000000000000600052601160045260246000fd5b60006120e7826114c0565b91507fffffffffffffffffffffffffffffffffffffffffffffffffffffffffffffffff8203612119576121186120ad565b5b600182019050919050565b600061212f826114c0565b915061213a836114c0565b9250828201905080821115612152576121516120ad565b5b92915050565b7f4e487b7100000000000000000000000000000000000000000000000000000000600052602260045260246000fd5b6000600282049050600182168061219f57607f821691505b6020821081036121b2576121b1612158565b5b50919050565b60008190508160005260206000209050919050565b600081546121da81612187565b6121e48186611b9c565b945060018216600081146121ff576001811461221557612248565b60ff198316865281151560200286019350612248565b61221e856121b8565b60005b8381101561224057815481890152600182019150602081019050612221565b808801955050505b50505092915050565b6000819050919050565b600061227661227161226c846114f6565b612251565b6114f6565b9050919050565b60006122888261225b565b9050919050565b600061229a8261227d565b9050919050565b6122aa8161228f565b82525050565b60006060820190506122c56000830186611b7e565b81810360208301526122d781856121cd565b90506122e660408301846122a1565b949350505050565b7f4e487b7100000000000000000000000000000000000000000000000000000000600052603260045260246000fd5b60006020601f8301049050919050565b600082821b905092915050565b60006008830261236a7fffffffffffffffffffffffffffffffffffffffffffffffffffffffffffffffff8261232d565b612374868361232d565b95508019841693508086168417925050509392505050565b60006123a76123a261239d846114c0565b612251565b6114c0565b9050919050565b6000819050919050565b6123c18361238c565b6123d56123cd826123ae565b84845461233a565b825550505050565b600090565b6123ea6123dd565b6123f58184846123b8565b505050565b5b818110156124195761240e6000826123e2565b6001810190506123fb565b5050565b601f82111561245e5761242f816121b8565b6124388461231d565b81016020851015612447578190505b61245b6124538561231d565b8301826123fa565b50505b505050565b600082821c905092915050565b600061248160001984600802612463565b1980831691505092915050565b600061249a8383612470565b9150826002028217905092915050565b6124b3826119b0565b67ffffffffffffffff8111156124cc576124cb611807565b5b6124d68254612187565b6124e182828561241d565b600060209050601f8311600181146125145760008415612502578287015190505b61250c858261248e565b865550612574565b601f198416612522866121b8565b60005b8281101561254a57848901518255600182019150602085019450602081019050612525565b868310156125675784890151612563601f891682612470565b8355505b6001600288020188555050505b505050505050565b6000612587826114c0565b9150612592836114c0565b92508282039050818111156125aa576125a96120ad565b5b92915050565b7f416374696f6e206e6f74207965742076616c6964617465640000000000000000600082015250565b60006125e6601883611b9c565b91506125f1826125b0565b602082019050919050565b60006020820190508181036000830152612615816125d9565b9050919050565b7f4e487b7100000000000000000000000000000000000000000000000000000000600052601260045260246000fd5b6000612656826114c0565b9150612661836114c0565b9250826126715761267061261c565b5b82820490509291505056fea264697066735822122099e339d3f14587002a34e60b95e988ed557641c0368328cbae4e12d8f8c78eb064736f6c634300081b0033",
  "linkReferences": {},
  "deployedLinkReferences": {}
}