{
  "_format": "hh-sol-artifact-1",
  "contractName": "EcoRewardSystem",
  "sourceName": "contracts/EcoRewardSystem.sol",
  "abi": [
    {
      "inputs": [],
      "stateMutability": "nonpayable",
      "type": "constructor"
    },
    {
      "anonymous": false,
      "inputs": [
        {
          "indexed": false,
          "internalType": "uint256",
          "name": "id",
          "type": "uint256"
        },
        {
          "indexed": false,
          "internalType": "string",
          "name": "description",
          "type": "string"
        },
        {
          "indexed": false,
          "internalType": "address",
          "name": "proposer",
          "type": "address"
        }
      ],
      "name": "ActionValidated",
      "type": "event"
    },
    {
      "anonymous": false,
      "inputs": [
        {
          "indexed": true,
          "internalType": "address",
          "name": "voter",
          "type": "address"
        },
        {
          "indexed": false,
          "internalType": "uint256",
          "name": "amount",
          "type": "uint256"
        }
      ],
      "name": "VoterPaid",
      "type": "event"
    },
    {
      "inputs": [
        {
          "internalType": "uint256",
          "name": "actionId",
          "type": "uint256"
        }
      ],
      "name": "ActionsByActionId",
      "outputs": [
        {
          "components": [
            {
              "internalType": "uint256",
              "name": "id",
              "type": "uint256"
            },
            {
              "internalType": "address payable",
              "name": "proposer",
              "type": "address"
            },
            {
              "internalType": "string",
              "name": "description",
              "type": "string"
            },
            {
              "internalType": "uint256",
              "name": "voteCount",
              "type": "uint256"
            },
            {
              "internalType": "bool",
              "name": "validated",
              "type": "bool"
            },
            {
              "internalType": "address[]",
              "name": "voters",
              "type": "address[]"
            }
          ],
          "internalType": "struct EcoRewardSystem.Action",
          "name": "",
          "type": "tuple"
        }
      ],
      "stateMutability": "view",
      "type": "function"
    },
    {
      "inputs": [],
      "name": "AllActionsList",
      "outputs": [
        {
          "components": [
            {
              "internalType": "uint256",
              "name": "id",
              "type": "uint256"
            },
            {
              "internalType": "address payable",
              "name": "proposer",
              "type": "address"
            },
            {
              "internalType": "string",
              "name": "description",
              "type": "string"
            },
            {
              "internalType": "uint256",
              "name": "voteCount",
              "type": "uint256"
            },
            {
              "internalType": "bool",
              "name": "validated",
              "type": "bool"
            },
            {
              "internalType": "address[]",
              "name": "voters",
              "type": "address[]"
            }
          ],
          "internalType": "struct EcoRewardSystem.Action[]",
          "name": "",
          "type": "tuple[]"
        }
      ],
      "stateMutability": "view",
      "type": "function"
    },
    {
      "inputs": [],
      "name": "VOTE_THRESHOLD",
      "outputs": [
        {
          "internalType": "uint256",
          "name": "",
          "type": "uint256"
        }
      ],
      "stateMutability": "view",
      "type": "function"
    },
    {
      "inputs": [
        {
          "internalType": "uint256",
          "name": "actionId",
          "type": "uint256"
        }
      ],
      "name": "VotesByActionId",
      "outputs": [
        {
          "internalType": "address[]",
          "name": "",
          "type": "address[]"
        }
      ],
      "stateMutability": "view",
      "type": "function"
    },
    {
      "inputs": [
        {
          "internalType": "address",
          "name": "voter",
          "type": "address"
        }
      ],
      "name": "VotesByAdresse",
      "outputs": [
        {
          "internalType": "uint256[]",
          "name": "",
          "type": "uint256[]"
        }
      ],
      "stateMutability": "view",
      "type": "function"
    },
    {
      "inputs": [],
      "name": "actionCounter",
      "outputs": [
        {
          "internalType": "uint256",
          "name": "",
          "type": "uint256"
        }
      ],
      "stateMutability": "view",
      "type": "function"
    },
    {
      "inputs": [
        {
          "internalType": "uint256",
          "name": "",
          "type": "uint256"
        }
      ],
      "name": "actions",
      "outputs": [
        {
          "internalType": "uint256",
          "name": "id",
          "type": "uint256"
        },
        {
          "internalType": "address payable",
          "name": "proposer",
          "type": "address"
        },
        {
          "internalType": "string",
          "name": "description",
          "type": "string"
        },
        {
          "internalType": "uint256",
          "name": "voteCount",
          "type": "uint256"
        },
        {
          "internalType": "bool",
          "name": "validated",
          "type": "bool"
        }
      ],
      "stateMutability": "view",
      "type": "function"
    },
    {
      "inputs": [],
      "name": "admin",
      "outputs": [
        {
          "internalType": "address",
          "name": "",
          "type": "address"
        }
      ],
      "stateMutability": "view",
      "type": "function"
    },
    {
      "inputs": [
        {
          "internalType": "uint256",
          "name": "actionId",
          "type": "uint256"
        }
      ],
      "name": "payVotersAndProposer",
      "outputs": [],
      "stateMutability": "nonpayable",
      "type": "function"
    },
    {
      "inputs": [
        {
          "internalType": "string",
          "name": "description",
          "type": "string"
        },
        {
          "internalType": "address payable",
          "name": "_address",
          "type": "address"
        }
      ],
      "name": "proposeAction",
      "outputs": [],
      "stateMutability": "nonpayable",
      "type": "function"
    },
    {
      "inputs": [
        {
          "internalType": "uint256",
          "name": "actionId",
          "type": "uint256"
        },
        {
          "internalType": "address payable",
          "name": "_address",
          "type": "address"
        }
      ],
      "name": "voteForAction",
      "outputs": [],
      "stateMutability": "nonpayable",
      "type": "function"
    },
    {
      "inputs": [
        {
          "internalType": "uint256",
          "name": "",
          "type": "uint256"
        },
        {
          "internalType": "address",
          "name": "",
          "type": "address"
        }
      ],
      "name": "votes",
      "outputs": [
        {
          "internalType": "bool",
          "name": "",
          "type": "bool"
        }
      ],
      "stateMutability": "view",
      "type": "function"
    },
    {
      "stateMutability": "payable",
      "type": "receive"
    }
  ],
  "bytecode": "0x60806040526000600155348015601457600080fd5b50336000806101000a81548173ffffffffffffffffffffffffffffffffffffffff021916908373ffffffffffffffffffffffffffffffffffffffff160217905550612677806100646000396000f3fe6080604052600436106100ab5760003560e01c80638886d42f116100645780638886d42f14610201578063a0ef4d0e1461022c578063a9097a9e14610257578063d23254b414610280578063f851a440146102bd578063fdbd98b0146102e8576100b2565b806318bf49e6146100b7578063397174a2146100e057806364a4134c1461010957806367736bb01461014657806380dd008a1461018357806383240f83146101c0576100b2565b366100b257005b600080fd5b3480156100c357600080fd5b506100de60048036038101906100d99190611675565b610313565b005b3480156100ec57600080fd5b5061010760048036038101906101029190611707565b610441565b005b34801561011557600080fd5b50610130600480360381019061012b9190611747565b61080e565b60405161013d9190611844565b60405180910390f35b34801561015257600080fd5b5061016d60048036038101906101689190611892565b61090b565b60405161017a919061197d565b60405180910390f35b34801561018f57600080fd5b506101aa60048036038101906101a59190611747565b610abe565b6040516101b79190611b47565b60405180910390f35b3480156101cc57600080fd5b506101e760048036038101906101e29190611747565b610ce9565b6040516101f8959493929190611be0565b60405180910390f35b34801561020d57600080fd5b50610216610dd4565b6040516102239190611d8c565b60405180910390f35b34801561023857600080fd5b50610241611048565b60405161024e9190611dae565b60405180910390f35b34801561026357600080fd5b5061027e60048036038101906102799190611747565b61104d565b005b34801561028c57600080fd5b506102a760048036038101906102a29190611dc9565b61136f565b6040516102b49190611e09565b60405180910390f35b3480156102c957600080fd5b506102d261139e565b6040516102df9190611e33565b60405180910390f35b3480156102f457600080fd5b506102fd6113c2565b60405161030a9190611dae565b60405180910390f35b6001600081548092919061032690611e7d565b919050555060606040518060c0016040528060015481526020018373ffffffffffffffffffffffffffffffffffffffff16815260200184815260200160008152602001600015158152602001828152506002600060015481526020019081526020016000206000820151816000015560208201518160010160006101000a81548173ffffffffffffffffffffffffffffffffffffffff021916908373ffffffffffffffffffffffffffffffffffffffff16021790555060408201518160020190816103f191906120d1565b506060820151816003015560808201518160040160006101000a81548160ff02191690831515021790555060a08201518160050190805190602001906104389291906113c8565b50905050505050565b60008054906101000a900473ffffffffffffffffffffffffffffffffffffffff1673ffffffffffffffffffffffffffffffffffffffff168173ffffffffffffffffffffffffffffffffffffffff16036104cf576040517f08c379a00000000000000000000000000000000000000000000000000000000081526004016104c6906121ef565b60405180910390fd5b6000600260008481526020019081526020016000206000015403610528576040517f08c379a000000000000000000000000000000000000000000000000000000000815260040161051f9061225b565b60405180910390fd5b6003600083815260200190815260200160002060008273ffffffffffffffffffffffffffffffffffffffff1673ffffffffffffffffffffffffffffffffffffffff16815260200190815260200160002060009054906101000a900460ff16156105c6576040517f08c379a00000000000000000000000000000000000000000000000000000000081526004016105bd906122ed565b60405180910390fd5b6002600083815260200190815260200160002060040160009054906101000a900460ff161561062a576040517f08c379a000000000000000000000000000000000000000000000000000000000815260040161062190612359565b60405180910390fd5b60016003600084815260200190815260200160002060008373ffffffffffffffffffffffffffffffffffffffff1673ffffffffffffffffffffffffffffffffffffffff16815260200190815260200160002060006101000a81548160ff0219169083151502179055506002600083815260200190815260200160002060030160008154809291906106ba90611e7d565b919050555060026000838152602001908152602001600020600501819080600181540180825580915050600190039060005260206000200160009091909190916101000a81548173ffffffffffffffffffffffffffffffffffffffff021916908373ffffffffffffffffffffffffffffffffffffffff160217905550600360026000848152602001908152602001600020600301541061080a5760016002600084815260200190815260200160002060040160006101000a81548160ff0219169083151502179055507fba0ef4bed83a78c76584b05e145a6807ae3d84040f23e412d8d34633aa9ed92482600260008581526020019081526020016000206002016002600086815260200190815260200160002060010160009054906101000a900473ffffffffffffffffffffffffffffffffffffffff1660405161080193929190612452565b60405180910390a15b5050565b60606000600260008481526020019081526020016000206000015403610869576040517f08c379a00000000000000000000000000000000000000000000000000000000081526004016108609061225b565b60405180910390fd5b600260008381526020019081526020016000206005018054806020026020016040519081016040528092919081815260200182805480156108ff57602002820191906000526020600020905b8160009054906101000a900473ffffffffffffffffffffffffffffffffffffffff1673ffffffffffffffffffffffffffffffffffffffff16815260200190600101908083116108b5575b50505050509050919050565b6060600060015467ffffffffffffffff81111561092b5761092a6114ec565b5b6040519080825280602002602001820160405280156109595781602001602082028036833780820191505090505b509050600080600190505b6001548111610a12576003600082815260200190815260200160002060008673ffffffffffffffffffffffffffffffffffffffff1673ffffffffffffffffffffffffffffffffffffffff16815260200190815260200160002060009054906101000a900460ff16156109ff57808383815181106109e4576109e3612490565b5b60200260200101818152505081806109fb90611e7d565b9250505b8080610a0a90611e7d565b915050610964565b5060008167ffffffffffffffff811115610a2f57610a2e6114ec565b5b604051908082528060200260200182016040528015610a5d5781602001602082028036833780820191505090505b50905060005b82811015610ab257838181518110610a7e57610a7d612490565b5b6020026020010151828281518110610a9957610a98612490565b5b6020026020010181815250508080600101915050610a63565b50809350505050919050565b610ac6611452565b6000600260008481526020019081526020016000206000015403610b1f576040517f08c379a0000000000000000000000000000000000000000000000000000000008152600401610b169061225b565b60405180910390fd5b600260008381526020019081526020016000206040518060c0016040529081600082015481526020016001820160009054906101000a900473ffffffffffffffffffffffffffffffffffffffff1673ffffffffffffffffffffffffffffffffffffffff1673ffffffffffffffffffffffffffffffffffffffff168152602001600282018054610bad90611ef4565b80601f0160208091040260200160405190810160405280929190818152602001828054610bd990611ef4565b8015610c265780601f10610bfb57610100808354040283529160200191610c26565b820191906000526020600020905b815481529060010190602001808311610c0957829003601f168201915b50505050508152602001600382015481526020016004820160009054906101000a900460ff1615151515815260200160058201805480602002602001604051908101604052809291908181526020018280548015610cd957602002820191906000526020600020905b8160009054906101000a900473ffffffffffffffffffffffffffffffffffffffff1673ffffffffffffffffffffffffffffffffffffffff1681526020019060010190808311610c8f575b5050505050815250509050919050565b60026020528060005260406000206000915090508060000154908060010160009054906101000a900473ffffffffffffffffffffffffffffffffffffffff1690806002018054610d3890611ef4565b80601f0160208091040260200160405190810160405280929190818152602001828054610d6490611ef4565b8015610db15780601f10610d8657610100808354040283529160200191610db1565b820191906000526020600020905b815481529060010190602001808311610d9457829003601f168201915b5050505050908060030154908060040160009054906101000a900460ff16905085565b6060600060015467ffffffffffffffff811115610df457610df36114ec565b5b604051908082528060200260200182016040528015610e2d57816020015b610e1a611452565b815260200190600190039081610e125790505b5090506000600190505b600154811161104057600260008281526020019081526020016000206040518060c0016040529081600082015481526020016001820160009054906101000a900473ffffffffffffffffffffffffffffffffffffffff1673ffffffffffffffffffffffffffffffffffffffff1673ffffffffffffffffffffffffffffffffffffffff168152602001600282018054610ece90611ef4565b80601f0160208091040260200160405190810160405280929190818152602001828054610efa90611ef4565b8015610f475780601f10610f1c57610100808354040283529160200191610f47565b820191906000526020600020905b815481529060010190602001808311610f2a57829003601f168201915b50505050508152602001600382015481526020016004820160009054906101000a900460ff1615151515815260200160058201805480602002602001604051908101604052809291908181526020018280548015610ffa57602002820191906000526020600020905b8160009054906101000a900473ffffffffffffffffffffffffffffffffffffffff1673ffffffffffffffffffffffffffffffffffffffff1681526020019060010190808311610fb0575b5050505050815250508260018361101191906124bf565b8151811061102257611021612490565b5b6020026020010181905250808061103890611e7d565b915050610e37565b508091505090565b600381565b6002600082815260200190815260200160002060040160009054906101000a900460ff166110b0576040517f08c379a00000000000000000000000000000000000000000000000000000000081526004016110a79061253f565b60405180910390fd5b6000652d79883d2000905060006512309ce5400090506000600160026000868152602001908152602001600020600501805490506110ee919061255f565b826110f99190612593565b83611104919061255f565b905080471015611149576040517f08c379a000000000000000000000000000000000000000000000000000000000815260040161114090612621565b60405180910390fd5b6002600085815260200190815260200160002060010160009054906101000a900473ffffffffffffffffffffffffffffffffffffffff1673ffffffffffffffffffffffffffffffffffffffff166108fc849081150290604051600060405180830381858888f193505050501580156111c5573d6000803e3d6000fd5b506002600085815260200190815260200160002060010160009054906101000a900473ffffffffffffffffffffffffffffffffffffffff1673ffffffffffffffffffffffffffffffffffffffff167ff5d52abf157650f00ccc41649c827be7f94ef53a5d011c1b995cc4eb0deb43b4846040516112429190611dae565b60405180910390a260005b600260008681526020019081526020016000206005018054905081101561136857600060026000878152602001908152602001600020600501828154811061129857611297612490565b5b9060005260206000200160009054906101000a900473ffffffffffffffffffffffffffffffffffffffff1690508073ffffffffffffffffffffffffffffffffffffffff166108fc859081150290604051600060405180830381858888f1935050505015801561130b573d6000803e3d6000fd5b508073ffffffffffffffffffffffffffffffffffffffff167ff5d52abf157650f00ccc41649c827be7f94ef53a5d011c1b995cc4eb0deb43b4856040516113529190611dae565b60405180910390a250808060010191505061124d565b5050505050565b60036020528160005260406000206020528060005260406000206000915091509054906101000a900460ff1681565b60008054906101000a900473ffffffffffffffffffffffffffffffffffffffff1681565b60015481565b828054828255906000526020600020908101928215611441579160200282015b828111156114405782518260006101000a81548173ffffffffffffffffffffffffffffffffffffffff021916908373ffffffffffffffffffffffffffffffffffffffff160217905550916020019190600101906113e8565b5b50905061144e91906114a0565b5090565b6040518060c0016040528060008152602001600073ffffffffffffffffffffffffffffffffffffffff1681526020016060815260200160008152602001600015158152602001606081525090565b5b808211156114b95760008160009055506001016114a1565b5090565b6000604051905090565b600080fd5b600080fd5b600080fd5b600080fd5b6000601f19601f8301169050919050565b7f4e487b7100000000000000000000000000000000000000000000000000000000600052604160045260246000fd5b611524826114db565b810181811067ffffffffffffffff82111715611543576115426114ec565b5b80604052505050565b60006115566114bd565b9050611562828261151b565b919050565b600067ffffffffffffffff821115611582576115816114ec565b5b61158b826114db565b9050602081019050919050565b82818337600083830152505050565b60006115ba6115b584611567565b61154c565b9050828152602081018484840111156115d6576115d56114d6565b5b6115e1848285611598565b509392505050565b600082601f8301126115fe576115fd6114d1565b5b813561160e8482602086016115a7565b91505092915050565b600073ffffffffffffffffffffffffffffffffffffffff82169050919050565b600061164282611617565b9050919050565b61165281611637565b811461165d57600080fd5b50565b60008135905061166f81611649565b92915050565b6000806040838503121561168c5761168b6114c7565b5b600083013567ffffffffffffffff8111156116aa576116a96114cc565b5b6116b6858286016115e9565b92505060206116c785828601611660565b9150509250929050565b6000819050919050565b6116e4816116d1565b81146116ef57600080fd5b50565b600081359050611701816116db565b92915050565b6000806040838503121561171e5761171d6114c7565b5b600061172c858286016116f2565b925050602061173d85828601611660565b9150509250929050565b60006020828403121561175d5761175c6114c7565b5b600061176b848285016116f2565b91505092915050565b600081519050919050565b600082825260208201905092915050565b6000819050602082019050919050565b60006117ab82611617565b9050919050565b6117bb816117a0565b82525050565b60006117cd83836117b2565b60208301905092915050565b6000602082019050919050565b60006117f182611774565b6117fb818561177f565b935061180683611790565b8060005b8381101561183757815161181e88826117c1565b9750611829836117d9565b92505060018101905061180a565b5085935050505092915050565b6000602082019050818103600083015261185e81846117e6565b905092915050565b61186f816117a0565b811461187a57600080fd5b50565b60008135905061188c81611866565b92915050565b6000602082840312156118a8576118a76114c7565b5b60006118b68482850161187d565b91505092915050565b600081519050919050565b600082825260208201905092915050565b6000819050602082019050919050565b6118f4816116d1565b82525050565b600061190683836118eb565b60208301905092915050565b6000602082019050919050565b600061192a826118bf565b61193481856118ca565b935061193f836118db565b8060005b8381101561197057815161195788826118fa565b975061196283611912565b925050600181019050611943565b5085935050505092915050565b60006020820190508181036000830152611997818461191f565b905092915050565b6119a881611637565b82525050565b600081519050919050565b600082825260208201905092915050565b60005b838110156119e85780820151818401526020810190506119cd565b60008484015250505050565b60006119ff826119ae565b611a0981856119b9565b9350611a198185602086016119ca565b611a22816114db565b840191505092915050565b60008115159050919050565b611a4281611a2d565b82525050565b600082825260208201905092915050565b6000611a6482611774565b611a6e8185611a48565b9350611a7983611790565b8060005b83811015611aaa578151611a9188826117c1565b9750611a9c836117d9565b925050600181019050611a7d565b5085935050505092915050565b600060c083016000830151611acf60008601826118eb565b506020830151611ae2602086018261199f565b5060408301518482036040860152611afa82826119f4565b9150506060830151611b0f60608601826118eb565b506080830151611b226080860182611a39565b5060a083015184820360a0860152611b3a8282611a59565b9150508091505092915050565b60006020820190508181036000830152611b618184611ab7565b905092915050565b611b72816116d1565b82525050565b611b8181611637565b82525050565b600082825260208201905092915050565b6000611ba3826119ae565b611bad8185611b87565b9350611bbd8185602086016119ca565b611bc6816114db565b840191505092915050565b611bda81611a2d565b82525050565b600060a082019050611bf56000830188611b69565b611c026020830187611b78565b8181036040830152611c148186611b98565b9050611c236060830185611b69565b611c306080830184611bd1565b9695505050505050565b600081519050919050565b600082825260208201905092915050565b6000819050602082019050919050565b600060c083016000830151611c7e60008601826118eb565b506020830151611c91602086018261199f565b5060408301518482036040860152611ca982826119f4565b9150506060830151611cbe60608601826118eb565b506080830151611cd16080860182611a39565b5060a083015184820360a0860152611ce98282611a59565b9150508091505092915050565b6000611d028383611c66565b905092915050565b6000602082019050919050565b6000611d2282611c3a565b611d2c8185611c45565b935083602082028501611d3e85611c56565b8060005b85811015611d7a5784840389528151611d5b8582611cf6565b9450611d6683611d0a565b925060208a01995050600181019050611d42565b50829750879550505050505092915050565b60006020820190508181036000830152611da68184611d17565b905092915050565b6000602082019050611dc36000830184611b69565b92915050565b60008060408385031215611de057611ddf6114c7565b5b6000611dee858286016116f2565b9250506020611dff8582860161187d565b9150509250929050565b6000602082019050611e1e6000830184611bd1565b92915050565b611e2d816117a0565b82525050565b6000602082019050611e486000830184611e24565b92915050565b7f4e487b7100000000000000000000000000000000000000000000000000000000600052601160045260246000fd5b6000611e88826116d1565b91507fffffffffffffffffffffffffffffffffffffffffffffffffffffffffffffffff8203611eba57611eb9611e4e565b5b600182019050919050565b7f4e487b7100000000000000000000000000000000000000000000000000000000600052602260045260246000fd5b60006002820490506001821680611f0c57607f821691505b602082108103611f1f57611f1e611ec5565b5b50919050565b60008190508160005260206000209050919050565b60006020601f8301049050919050565b600082821b905092915050565b600060088302611f877fffffffffffffffffffffffffffffffffffffffffffffffffffffffffffffffff82611f4a565b611f918683611f4a565b95508019841693508086168417925050509392505050565b6000819050919050565b6000611fce611fc9611fc4846116d1565b611fa9565b6116d1565b9050919050565b6000819050919050565b611fe883611fb3565b611ffc611ff482611fd5565b848454611f57565b825550505050565b600090565b612011612004565b61201c818484611fdf565b505050565b5b8181101561204057612035600082612009565b600181019050612022565b5050565b601f8211156120855761205681611f25565b61205f84611f3a565b8101602085101561206e578190505b61208261207a85611f3a565b830182612021565b50505b505050565b600082821c905092915050565b60006120a86000198460080261208a565b1980831691505092915050565b60006120c18383612097565b9150826002028217905092915050565b6120da826119ae565b67ffffffffffffffff8111156120f3576120f26114ec565b5b6120fd8254611ef4565b612108828285612044565b600060209050601f83116001811461213b5760008415612129578287015190505b61213385826120b5565b86555061219b565b601f19841661214986611f25565b60005b828110156121715784890151825560018201915060208501945060208101905061214c565b8683101561218e578489015161218a601f891682612097565b8355505b6001600288020188555050505b505050505050565b7f5468652061646d696e2063616e6e6f7420766f74650000000000000000000000600082015250565b60006121d9601583611b87565b91506121e4826121a3565b602082019050919050565b60006020820190508181036000830152612208816121cc565b9050919050565b7f416374696f6e20646f6573206e6f742065786973740000000000000000000000600082015250565b6000612245601583611b87565b91506122508261220f565b602082019050919050565b6000602082019050818103600083015261227481612238565b9050919050565b7f596f75206861766520616c726561647920766f74656420666f7220746869732060008201527f616374696f6e0000000000000000000000000000000000000000000000000000602082015250565b60006122d7602683611b87565b91506122e28261227b565b604082019050919050565b60006020820190508181036000830152612306816122ca565b9050919050565b7f416374696f6e20697320616c72656164792076616c6964617465640000000000600082015250565b6000612343601b83611b87565b915061234e8261230d565b602082019050919050565b6000602082019050818103600083015261237281612336565b9050919050565b6000815461238681611ef4565b6123908186611b87565b945060018216600081146123ab57600181146123c1576123f4565b60ff1983168652811515602002860193506123f4565b6123ca85611f25565b60005b838110156123ec578154818901526001820191506020810190506123cd565b808801955050505b50505092915050565b600061241861241361240e84611617565b611fa9565b611617565b9050919050565b600061242a826123fd565b9050919050565b600061243c8261241f565b9050919050565b61244c81612431565b82525050565b60006060820190506124676000830186611b69565b81810360208301526124798185612379565b90506124886040830184612443565b949350505050565b7f4e487b7100000000000000000000000000000000000000000000000000000000600052603260045260246000fd5b60006124ca826116d1565b91506124d5836116d1565b92508282039050818111156124ed576124ec611e4e565b5b92915050565b7f416374696f6e206e6f74207965742076616c6964617465640000000000000000600082015250565b6000612529601883611b87565b9150612534826124f3565b602082019050919050565b600060208201905081810360008301526125588161251c565b9050919050565b600061256a826116d1565b9150612575836116d1565b925082820190508082111561258d5761258c611e4e565b5b92915050565b600061259e826116d1565b91506125a9836116d1565b92508282026125b7816116d1565b915082820484148315176125ce576125cd611e4e565b5b5092915050565b7f536f6c646520696e737566666973616e74000000000000000000000000000000600082015250565b600061260b601183611b87565b9150612616826125d5565b602082019050919050565b6000602082019050818103600083015261263a816125fe565b905091905056fea26469706673582212204fa947b9ec573b447c977e05ea0c328c8261ff0a8caa6e3cfd7f4425d9ed168d64736f6c634300081b0033",
  "linkReferences": {},
  "deployedLinkReferences": {}
}