{
  "_format": "hh-sol-artifact-1",
  "contractName": "EcoRewardSystem",
  "sourceName": "contracts/EcoloSystem.sol",
  "abi": [
    {
      "inputs": [],
      "stateMutability": "nonpayable",
      "type": "constructor"
    },
    {
      "anonymous": false,
      "inputs": [
        {
          "indexed": false,
          "internalType": "uint256",
          "name": "id",
          "type": "uint256"
        },
        {
          "indexed": false,
          "internalType": "string",
          "name": "description",
          "type": "string"
        },
        {
          "indexed": false,
          "internalType": "address",
          "name": "proposer",
          "type": "address"
        }
      ],
      "name": "ActionValidated",
      "type": "event"
    },
    {
      "anonymous": false,
      "inputs": [
        {
          "indexed": true,
          "internalType": "address",
          "name": "voter",
          "type": "address"
        },
        {
          "indexed": false,
          "internalType": "uint256",
          "name": "amount",
          "type": "uint256"
        }
      ],
      "name": "VoterPaid",
      "type": "event"
    },
    {
      "inputs": [
        {
          "internalType": "uint256",
          "name": "actionId",
          "type": "uint256"
        }
      ],
      "name": "ActionsByActionId",
      "outputs": [
        {
          "components": [
            {
              "internalType": "uint256",
              "name": "id",
              "type": "uint256"
            },
            {
              "internalType": "address payable",
              "name": "proposer",
              "type": "address"
            },
            {
              "internalType": "string",
              "name": "description",
              "type": "string"
            },
            {
              "internalType": "uint256",
              "name": "voteCount",
              "type": "uint256"
            },
            {
              "internalType": "bool",
              "name": "validated",
              "type": "bool"
            },
            {
              "internalType": "address[]",
              "name": "voters",
              "type": "address[]"
            }
          ],
          "internalType": "struct EcoRewardSystem.Action",
          "name": "",
          "type": "tuple"
        }
      ],
      "stateMutability": "view",
      "type": "function"
    },
    {
      "inputs": [],
      "name": "AllActionsList",
      "outputs": [
        {
          "components": [
            {
              "internalType": "uint256",
              "name": "id",
              "type": "uint256"
            },
            {
              "internalType": "address payable",
              "name": "proposer",
              "type": "address"
            },
            {
              "internalType": "string",
              "name": "description",
              "type": "string"
            },
            {
              "internalType": "uint256",
              "name": "voteCount",
              "type": "uint256"
            },
            {
              "internalType": "bool",
              "name": "validated",
              "type": "bool"
            },
            {
              "internalType": "address[]",
              "name": "voters",
              "type": "address[]"
            }
          ],
          "internalType": "struct EcoRewardSystem.Action[]",
          "name": "",
          "type": "tuple[]"
        }
      ],
      "stateMutability": "view",
      "type": "function"
    },
    {
      "inputs": [],
      "name": "VOTE_THRESHOLD",
      "outputs": [
        {
          "internalType": "uint256",
          "name": "",
          "type": "uint256"
        }
      ],
      "stateMutability": "view",
      "type": "function"
    },
    {
      "inputs": [
        {
          "internalType": "uint256",
          "name": "actionId",
          "type": "uint256"
        }
      ],
      "name": "VotesByActionId",
      "outputs": [
        {
          "internalType": "address[]",
          "name": "",
          "type": "address[]"
        }
      ],
      "stateMutability": "view",
      "type": "function"
    },
    {
      "inputs": [
        {
          "internalType": "address",
          "name": "voter",
          "type": "address"
        }
      ],
      "name": "VotesByAdresse",
      "outputs": [
        {
          "internalType": "uint256[]",
          "name": "",
          "type": "uint256[]"
        }
      ],
      "stateMutability": "view",
      "type": "function"
    },
    {
      "inputs": [],
      "name": "actionCounter",
      "outputs": [
        {
          "internalType": "uint256",
          "name": "",
          "type": "uint256"
        }
      ],
      "stateMutability": "view",
      "type": "function"
    },
    {
      "inputs": [
        {
          "internalType": "uint256",
          "name": "",
          "type": "uint256"
        }
      ],
      "name": "actions",
      "outputs": [
        {
          "internalType": "uint256",
          "name": "id",
          "type": "uint256"
        },
        {
          "internalType": "address payable",
          "name": "proposer",
          "type": "address"
        },
        {
          "internalType": "string",
          "name": "description",
          "type": "string"
        },
        {
          "internalType": "uint256",
          "name": "voteCount",
          "type": "uint256"
        },
        {
          "internalType": "bool",
          "name": "validated",
          "type": "bool"
        }
      ],
      "stateMutability": "view",
      "type": "function"
    },
    {
      "inputs": [],
      "name": "admin",
      "outputs": [
        {
          "internalType": "address",
          "name": "",
          "type": "address"
        }
      ],
      "stateMutability": "view",
      "type": "function"
    },
    {
      "inputs": [
        {
          "internalType": "uint256",
          "name": "actionId",
          "type": "uint256"
        }
      ],
      "name": "payVotersAndProposer",
      "outputs": [],
      "stateMutability": "nonpayable",
      "type": "function"
    },
    {
      "inputs": [
        {
          "internalType": "string",
          "name": "description",
          "type": "string"
        },
        {
          "internalType": "address payable",
          "name": "_address",
          "type": "address"
        }
      ],
      "name": "proposeAction",
      "outputs": [],
      "stateMutability": "nonpayable",
      "type": "function"
    },
    {
      "inputs": [],
      "name": "rewardAmount",
      "outputs": [
        {
          "internalType": "uint256",
          "name": "",
          "type": "uint256"
        }
      ],
      "stateMutability": "view",
      "type": "function"
    },
    {
      "inputs": [],
      "name": "rewardAmountVoters",
      "outputs": [
        {
          "internalType": "uint256",
          "name": "",
          "type": "uint256"
        }
      ],
      "stateMutability": "view",
      "type": "function"
    },
    {
      "inputs": [
        {
          "internalType": "uint256",
          "name": "actionId",
          "type": "uint256"
        },
        {
          "internalType": "address payable",
          "name": "_address",
          "type": "address"
        }
      ],
      "name": "voteForAction",
      "outputs": [],
      "stateMutability": "nonpayable",
      "type": "function"
    },
    {
      "inputs": [
        {
          "internalType": "uint256",
          "name": "",
          "type": "uint256"
        },
        {
          "internalType": "address",
          "name": "",
          "type": "address"
        }
      ],
      "name": "votes",
      "outputs": [
        {
          "internalType": "bool",
          "name": "",
          "type": "bool"
        }
      ],
      "stateMutability": "view",
      "type": "function"
    },
    {
      "stateMutability": "payable",
      "type": "receive"
    }
  ],
  "bytecode": "0x60806040526000600155652d79883d20006004556512309ce54000600555348015602857600080fd5b50336000806101000a81548173ffffffffffffffffffffffffffffffffffffffff021916908373ffffffffffffffffffffffffffffffffffffffff160217905550612703806100786000396000f3fe6080604052600436106100e15760003560e01c8063a0ef4d0e1161007f578063ee31a65611610059578063ee31a656146102f3578063f7b2a7be1461031e578063f851a44014610349578063fdbd98b014610374576100e8565b8063a0ef4d0e14610262578063a9097a9e1461028d578063d23254b4146102b6576100e8565b806367736bb0116100bb57806367736bb01461017c57806380dd008a146101b957806383240f83146101f65780638886d42f14610237576100e8565b806318bf49e6146100ed578063397174a21461011657806364a4134c1461013f576100e8565b366100e857005b600080fd5b3480156100f957600080fd5b50610114600480360381019061010f9190611701565b61039f565b005b34801561012257600080fd5b5061013d60048036038101906101389190611793565b6104cd565b005b34801561014b57600080fd5b50610166600480360381019061016191906117d3565b61089a565b60405161017391906118d0565b60405180910390f35b34801561018857600080fd5b506101a3600480360381019061019e919061191e565b610997565b6040516101b09190611a09565b60405180910390f35b3480156101c557600080fd5b506101e060048036038101906101db91906117d3565b610b4a565b6040516101ed9190611bd3565b60405180910390f35b34801561020257600080fd5b5061021d600480360381019061021891906117d3565b610d75565b60405161022e959493929190611c6c565b60405180910390f35b34801561024357600080fd5b5061024c610e60565b6040516102599190611e18565b60405180910390f35b34801561026e57600080fd5b506102776110d4565b6040516102849190611e3a565b60405180910390f35b34801561029957600080fd5b506102b460048036038101906102af91906117d3565b6110d9565b005b3480156102c257600080fd5b506102dd60048036038101906102d89190611e55565b6113ef565b6040516102ea9190611e95565b60405180910390f35b3480156102ff57600080fd5b5061030861141e565b6040516103159190611e3a565b60405180910390f35b34801561032a57600080fd5b50610333611424565b6040516103409190611e3a565b60405180910390f35b34801561035557600080fd5b5061035e61142a565b60405161036b9190611ebf565b60405180910390f35b34801561038057600080fd5b5061038961144e565b6040516103969190611e3a565b60405180910390f35b600160008154809291906103b290611f09565b919050555060606040518060c0016040528060015481526020018373ffffffffffffffffffffffffffffffffffffffff16815260200184815260200160008152602001600015158152602001828152506002600060015481526020019081526020016000206000820151816000015560208201518160010160006101000a81548173ffffffffffffffffffffffffffffffffffffffff021916908373ffffffffffffffffffffffffffffffffffffffff160217905550604082015181600201908161047d919061215d565b506060820151816003015560808201518160040160006101000a81548160ff02191690831515021790555060a08201518160050190805190602001906104c4929190611454565b50905050505050565b60008054906101000a900473ffffffffffffffffffffffffffffffffffffffff1673ffffffffffffffffffffffffffffffffffffffff168173ffffffffffffffffffffffffffffffffffffffff160361055b576040517f08c379a00000000000000000000000000000000000000000000000000000000081526004016105529061227b565b60405180910390fd5b60006002600084815260200190815260200160002060000154036105b4576040517f08c379a00000000000000000000000000000000000000000000000000000000081526004016105ab906122e7565b60405180910390fd5b6003600083815260200190815260200160002060008273ffffffffffffffffffffffffffffffffffffffff1673ffffffffffffffffffffffffffffffffffffffff16815260200190815260200160002060009054906101000a900460ff1615610652576040517f08c379a000000000000000000000000000000000000000000000000000000000815260040161064990612379565b60405180910390fd5b6002600083815260200190815260200160002060040160009054906101000a900460ff16156106b6576040517f08c379a00000000000000000000000000000000000000000000000000000000081526004016106ad906123e5565b60405180910390fd5b60016003600084815260200190815260200160002060008373ffffffffffffffffffffffffffffffffffffffff1673ffffffffffffffffffffffffffffffffffffffff16815260200190815260200160002060006101000a81548160ff02191690831515021790555060026000838152602001908152602001600020600301600081548092919061074690611f09565b919050555060026000838152602001908152602001600020600501819080600181540180825580915050600190039060005260206000200160009091909190916101000a81548173ffffffffffffffffffffffffffffffffffffffff021916908373ffffffffffffffffffffffffffffffffffffffff16021790555060036002600084815260200190815260200160002060030154106108965760016002600084815260200190815260200160002060040160006101000a81548160ff0219169083151502179055507fba0ef4bed83a78c76584b05e145a6807ae3d84040f23e412d8d34633aa9ed92482600260008581526020019081526020016000206002016002600086815260200190815260200160002060010160009054906101000a900473ffffffffffffffffffffffffffffffffffffffff1660405161088d939291906124de565b60405180910390a15b5050565b606060006002600084815260200190815260200160002060000154036108f5576040517f08c379a00000000000000000000000000000000000000000000000000000000081526004016108ec906122e7565b60405180910390fd5b6002600083815260200190815260200160002060050180548060200260200160405190810160405280929190818152602001828054801561098b57602002820191906000526020600020905b8160009054906101000a900473ffffffffffffffffffffffffffffffffffffffff1673ffffffffffffffffffffffffffffffffffffffff1681526020019060010190808311610941575b50505050509050919050565b6060600060015467ffffffffffffffff8111156109b7576109b6611578565b5b6040519080825280602002602001820160405280156109e55781602001602082028036833780820191505090505b509050600080600190505b6001548111610a9e576003600082815260200190815260200160002060008673ffffffffffffffffffffffffffffffffffffffff1673ffffffffffffffffffffffffffffffffffffffff16815260200190815260200160002060009054906101000a900460ff1615610a8b5780838381518110610a7057610a6f61251c565b5b6020026020010181815250508180610a8790611f09565b9250505b8080610a9690611f09565b9150506109f0565b5060008167ffffffffffffffff811115610abb57610aba611578565b5b604051908082528060200260200182016040528015610ae95781602001602082028036833780820191505090505b50905060005b82811015610b3e57838181518110610b0a57610b0961251c565b5b6020026020010151828281518110610b2557610b2461251c565b5b6020026020010181815250508080600101915050610aef565b50809350505050919050565b610b526114de565b6000600260008481526020019081526020016000206000015403610bab576040517f08c379a0000000000000000000000000000000000000000000000000000000008152600401610ba2906122e7565b60405180910390fd5b600260008381526020019081526020016000206040518060c0016040529081600082015481526020016001820160009054906101000a900473ffffffffffffffffffffffffffffffffffffffff1673ffffffffffffffffffffffffffffffffffffffff1673ffffffffffffffffffffffffffffffffffffffff168152602001600282018054610c3990611f80565b80601f0160208091040260200160405190810160405280929190818152602001828054610c6590611f80565b8015610cb25780601f10610c8757610100808354040283529160200191610cb2565b820191906000526020600020905b815481529060010190602001808311610c9557829003601f168201915b50505050508152602001600382015481526020016004820160009054906101000a900460ff1615151515815260200160058201805480602002602001604051908101604052809291908181526020018280548015610d6557602002820191906000526020600020905b8160009054906101000a900473ffffffffffffffffffffffffffffffffffffffff1673ffffffffffffffffffffffffffffffffffffffff1681526020019060010190808311610d1b575b5050505050815250509050919050565b60026020528060005260406000206000915090508060000154908060010160009054906101000a900473ffffffffffffffffffffffffffffffffffffffff1690806002018054610dc490611f80565b80601f0160208091040260200160405190810160405280929190818152602001828054610df090611f80565b8015610e3d5780601f10610e1257610100808354040283529160200191610e3d565b820191906000526020600020905b815481529060010190602001808311610e2057829003601f168201915b5050505050908060030154908060040160009054906101000a900460ff16905085565b6060600060015467ffffffffffffffff811115610e8057610e7f611578565b5b604051908082528060200260200182016040528015610eb957816020015b610ea66114de565b815260200190600190039081610e9e5790505b5090506000600190505b60015481116110cc57600260008281526020019081526020016000206040518060c0016040529081600082015481526020016001820160009054906101000a900473ffffffffffffffffffffffffffffffffffffffff1673ffffffffffffffffffffffffffffffffffffffff1673ffffffffffffffffffffffffffffffffffffffff168152602001600282018054610f5a90611f80565b80601f0160208091040260200160405190810160405280929190818152602001828054610f8690611f80565b8015610fd35780601f10610fa857610100808354040283529160200191610fd3565b820191906000526020600020905b815481529060010190602001808311610fb657829003601f168201915b50505050508152602001600382015481526020016004820160009054906101000a900460ff161515151581526020016005820180548060200260200160405190810160405280929190818152602001828054801561108657602002820191906000526020600020905b8160009054906101000a900473ffffffffffffffffffffffffffffffffffffffff1673ffffffffffffffffffffffffffffffffffffffff168152602001906001019080831161103c575b5050505050815250508260018361109d919061254b565b815181106110ae576110ad61251c565b5b602002602001018190525080806110c490611f09565b915050610ec3565b508091505090565b600381565b6002600082815260200190815260200160002060040160009054906101000a900460ff1661113c576040517f08c379a0000000000000000000000000000000000000000000000000000000008152600401611133906125cb565b60405180910390fd5b60006001600260008481526020019081526020016000206005018054905061116491906125eb565b600554611171919061261f565b60045461117e91906125eb565b9050804710156111c3576040517f08c379a00000000000000000000000000000000000000000000000000000000081526004016111ba906126ad565b60405180910390fd5b6002600083815260200190815260200160002060010160009054906101000a900473ffffffffffffffffffffffffffffffffffffffff1673ffffffffffffffffffffffffffffffffffffffff166108fc6004549081150290604051600060405180830381858888f19350505050158015611241573d6000803e3d6000fd5b506002600083815260200190815260200160002060010160009054906101000a900473ffffffffffffffffffffffffffffffffffffffff1673ffffffffffffffffffffffffffffffffffffffff167ff5d52abf157650f00ccc41649c827be7f94ef53a5d011c1b995cc4eb0deb43b46004546040516112c09190611e3a565b60405180910390a260005b60026000848152602001908152602001600020600501805490508110156113ea5760006002600085815260200190815260200160002060050182815481106113165761131561251c565b5b9060005260206000200160009054906101000a900473ffffffffffffffffffffffffffffffffffffffff1690508073ffffffffffffffffffffffffffffffffffffffff166108fc6005549081150290604051600060405180830381858888f1935050505015801561138b573d6000803e3d6000fd5b508073ffffffffffffffffffffffffffffffffffffffff167ff5d52abf157650f00ccc41649c827be7f94ef53a5d011c1b995cc4eb0deb43b46005546040516113d49190611e3a565b60405180910390a25080806001019150506112cb565b505050565b60036020528160005260406000206020528060005260406000206000915091509054906101000a900460ff1681565b60055481565b60045481565b60008054906101000a900473ffffffffffffffffffffffffffffffffffffffff1681565b60015481565b8280548282559060005260206000209081019282156114cd579160200282015b828111156114cc5782518260006101000a81548173ffffffffffffffffffffffffffffffffffffffff021916908373ffffffffffffffffffffffffffffffffffffffff16021790555091602001919060010190611474565b5b5090506114da919061152c565b5090565b6040518060c0016040528060008152602001600073ffffffffffffffffffffffffffffffffffffffff1681526020016060815260200160008152602001600015158152602001606081525090565b5b8082111561154557600081600090555060010161152d565b5090565b6000604051905090565b600080fd5b600080fd5b600080fd5b600080fd5b6000601f19601f8301169050919050565b7f4e487b7100000000000000000000000000000000000000000000000000000000600052604160045260246000fd5b6115b082611567565b810181811067ffffffffffffffff821117156115cf576115ce611578565b5b80604052505050565b60006115e2611549565b90506115ee82826115a7565b919050565b600067ffffffffffffffff82111561160e5761160d611578565b5b61161782611567565b9050602081019050919050565b82818337600083830152505050565b6000611646611641846115f3565b6115d8565b90508281526020810184848401111561166257611661611562565b5b61166d848285611624565b509392505050565b600082601f83011261168a5761168961155d565b5b813561169a848260208601611633565b91505092915050565b600073ffffffffffffffffffffffffffffffffffffffff82169050919050565b60006116ce826116a3565b9050919050565b6116de816116c3565b81146116e957600080fd5b50565b6000813590506116fb816116d5565b92915050565b6000806040838503121561171857611717611553565b5b600083013567ffffffffffffffff81111561173657611735611558565b5b61174285828601611675565b9250506020611753858286016116ec565b9150509250929050565b6000819050919050565b6117708161175d565b811461177b57600080fd5b50565b60008135905061178d81611767565b92915050565b600080604083850312156117aa576117a9611553565b5b60006117b88582860161177e565b92505060206117c9858286016116ec565b9150509250929050565b6000602082840312156117e9576117e8611553565b5b60006117f78482850161177e565b91505092915050565b600081519050919050565b600082825260208201905092915050565b6000819050602082019050919050565b6000611837826116a3565b9050919050565b6118478161182c565b82525050565b6000611859838361183e565b60208301905092915050565b6000602082019050919050565b600061187d82611800565b611887818561180b565b93506118928361181c565b8060005b838110156118c35781516118aa888261184d565b97506118b583611865565b925050600181019050611896565b5085935050505092915050565b600060208201905081810360008301526118ea8184611872565b905092915050565b6118fb8161182c565b811461190657600080fd5b50565b600081359050611918816118f2565b92915050565b60006020828403121561193457611933611553565b5b600061194284828501611909565b91505092915050565b600081519050919050565b600082825260208201905092915050565b6000819050602082019050919050565b6119808161175d565b82525050565b60006119928383611977565b60208301905092915050565b6000602082019050919050565b60006119b68261194b565b6119c08185611956565b93506119cb83611967565b8060005b838110156119fc5781516119e38882611986565b97506119ee8361199e565b9250506001810190506119cf565b5085935050505092915050565b60006020820190508181036000830152611a2381846119ab565b905092915050565b611a34816116c3565b82525050565b600081519050919050565b600082825260208201905092915050565b60005b83811015611a74578082015181840152602081019050611a59565b60008484015250505050565b6000611a8b82611a3a565b611a958185611a45565b9350611aa5818560208601611a56565b611aae81611567565b840191505092915050565b60008115159050919050565b611ace81611ab9565b82525050565b600082825260208201905092915050565b6000611af082611800565b611afa8185611ad4565b9350611b058361181c565b8060005b83811015611b36578151611b1d888261184d565b9750611b2883611865565b925050600181019050611b09565b5085935050505092915050565b600060c083016000830151611b5b6000860182611977565b506020830151611b6e6020860182611a2b565b5060408301518482036040860152611b868282611a80565b9150506060830151611b9b6060860182611977565b506080830151611bae6080860182611ac5565b5060a083015184820360a0860152611bc68282611ae5565b9150508091505092915050565b60006020820190508181036000830152611bed8184611b43565b905092915050565b611bfe8161175d565b82525050565b611c0d816116c3565b82525050565b600082825260208201905092915050565b6000611c2f82611a3a565b611c398185611c13565b9350611c49818560208601611a56565b611c5281611567565b840191505092915050565b611c6681611ab9565b82525050565b600060a082019050611c816000830188611bf5565b611c8e6020830187611c04565b8181036040830152611ca08186611c24565b9050611caf6060830185611bf5565b611cbc6080830184611c5d565b9695505050505050565b600081519050919050565b600082825260208201905092915050565b6000819050602082019050919050565b600060c083016000830151611d0a6000860182611977565b506020830151611d1d6020860182611a2b565b5060408301518482036040860152611d358282611a80565b9150506060830151611d4a6060860182611977565b506080830151611d5d6080860182611ac5565b5060a083015184820360a0860152611d758282611ae5565b9150508091505092915050565b6000611d8e8383611cf2565b905092915050565b6000602082019050919050565b6000611dae82611cc6565b611db88185611cd1565b935083602082028501611dca85611ce2565b8060005b85811015611e065784840389528151611de78582611d82565b9450611df283611d96565b925060208a01995050600181019050611dce565b50829750879550505050505092915050565b60006020820190508181036000830152611e328184611da3565b905092915050565b6000602082019050611e4f6000830184611bf5565b92915050565b60008060408385031215611e6c57611e6b611553565b5b6000611e7a8582860161177e565b9250506020611e8b85828601611909565b9150509250929050565b6000602082019050611eaa6000830184611c5d565b92915050565b611eb98161182c565b82525050565b6000602082019050611ed46000830184611eb0565b92915050565b7f4e487b7100000000000000000000000000000000000000000000000000000000600052601160045260246000fd5b6000611f148261175d565b91507fffffffffffffffffffffffffffffffffffffffffffffffffffffffffffffffff8203611f4657611f45611eda565b5b600182019050919050565b7f4e487b7100000000000000000000000000000000000000000000000000000000600052602260045260246000fd5b60006002820490506001821680611f9857607f821691505b602082108103611fab57611faa611f51565b5b50919050565b60008190508160005260206000209050919050565b60006020601f8301049050919050565b600082821b905092915050565b6000600883026120137fffffffffffffffffffffffffffffffffffffffffffffffffffffffffffffffff82611fd6565b61201d8683611fd6565b95508019841693508086168417925050509392505050565b6000819050919050565b600061205a6120556120508461175d565b612035565b61175d565b9050919050565b6000819050919050565b6120748361203f565b61208861208082612061565b848454611fe3565b825550505050565b600090565b61209d612090565b6120a881848461206b565b505050565b5b818110156120cc576120c1600082612095565b6001810190506120ae565b5050565b601f821115612111576120e281611fb1565b6120eb84611fc6565b810160208510156120fa578190505b61210e61210685611fc6565b8301826120ad565b50505b505050565b600082821c905092915050565b600061213460001984600802612116565b1980831691505092915050565b600061214d8383612123565b9150826002028217905092915050565b61216682611a3a565b67ffffffffffffffff81111561217f5761217e611578565b5b6121898254611f80565b6121948282856120d0565b600060209050601f8311600181146121c757600084156121b5578287015190505b6121bf8582612141565b865550612227565b601f1984166121d586611fb1565b60005b828110156121fd578489015182556001820191506020850194506020810190506121d8565b8683101561221a5784890151612216601f891682612123565b8355505b6001600288020188555050505b505050505050565b7f5468652061646d696e2063616e6e6f7420766f74650000000000000000000000600082015250565b6000612265601583611c13565b91506122708261222f565b602082019050919050565b6000602082019050818103600083015261229481612258565b9050919050565b7f416374696f6e20646f6573206e6f742065786973740000000000000000000000600082015250565b60006122d1601583611c13565b91506122dc8261229b565b602082019050919050565b60006020820190508181036000830152612300816122c4565b9050919050565b7f596f75206861766520616c726561647920766f74656420666f7220746869732060008201527f616374696f6e0000000000000000000000000000000000000000000000000000602082015250565b6000612363602683611c13565b915061236e82612307565b604082019050919050565b6000602082019050818103600083015261239281612356565b9050919050565b7f416374696f6e20697320616c72656164792076616c6964617465640000000000600082015250565b60006123cf601b83611c13565b91506123da82612399565b602082019050919050565b600060208201905081810360008301526123fe816123c2565b9050919050565b6000815461241281611f80565b61241c8186611c13565b94506001821660008114612437576001811461244d57612480565b60ff198316865281151560200286019350612480565b61245685611fb1565b60005b8381101561247857815481890152600182019150602081019050612459565b808801955050505b50505092915050565b60006124a461249f61249a846116a3565b612035565b6116a3565b9050919050565b60006124b682612489565b9050919050565b60006124c8826124ab565b9050919050565b6124d8816124bd565b82525050565b60006060820190506124f36000830186611bf5565b81810360208301526125058185612405565b905061251460408301846124cf565b949350505050565b7f4e487b7100000000000000000000000000000000000000000000000000000000600052603260045260246000fd5b60006125568261175d565b91506125618361175d565b925082820390508181111561257957612578611eda565b5b92915050565b7f416374696f6e206e6f74207965742076616c6964617465640000000000000000600082015250565b60006125b5601883611c13565b91506125c08261257f565b602082019050919050565b600060208201905081810360008301526125e4816125a8565b9050919050565b60006125f68261175d565b91506126018361175d565b925082820190508082111561261957612618611eda565b5b92915050565b600061262a8261175d565b91506126358361175d565b92508282026126438161175d565b9150828204841483151761265a57612659611eda565b5b5092915050565b7f536f6c646520696e737566666973616e74000000000000000000000000000000600082015250565b6000612697601183611c13565b91506126a282612661565b602082019050919050565b600060208201905081810360008301526126c68161268a565b905091905056fea264697066735822122063a27e8ca7c0185e6ed5f523ea7d941682197df3fede611d3078acb126e7fe9064736f6c634300081b0033",
  "linkReferences": {},
  "deployedLinkReferences": {}
}