{
  "_format": "hh-sol-artifact-1",
  "contractName": "EcologicalRewardsSystem",
  "sourceName": "contracts/EcologicalRewards.sol",
  "abi": [
    {
      "inputs": [],
      "stateMutability": "nonpayable",
      "type": "constructor"
    },
    {
      "anonymous": false,
      "inputs": [
        {
          "indexed": true,
          "internalType": "address",
          "name": "user",
          "type": "address"
        },
        {
          "indexed": false,
          "internalType": "uint256",
          "name": "actionId",
          "type": "uint256"
        },
        {
          "indexed": false,
          "internalType": "string",
          "name": "description",
          "type": "string"
        },
        {
          "indexed": false,
          "internalType": "uint256",
          "name": "points",
          "type": "uint256"
        }
      ],
      "name": "ActionDeclared",
      "type": "event"
    },
    {
      "anonymous": false,
      "inputs": [
        {
          "indexed": true,
          "internalType": "address",
          "name": "user",
          "type": "address"
        },
        {
          "indexed": true,
          "internalType": "uint256",
          "name": "actionId",
          "type": "uint256"
        },
        {
          "indexed": false,
          "internalType": "uint256",
          "name": "rewardPoints",
          "type": "uint256"
        }
      ],
      "name": "ActionValidated",
      "type": "event"
    },
    {
      "anonymous": false,
      "inputs": [
        {
          "indexed": true,
          "internalType": "address",
          "name": "user",
          "type": "address"
        },
        {
          "indexed": false,
          "internalType": "uint256",
          "name": "newBalance",
          "type": "uint256"
        }
      ],
      "name": "RewardsBalanceUpdated",
      "type": "event"
    },
    {
      "anonymous": false,
      "inputs": [
        {
          "indexed": true,
          "internalType": "address",
          "name": "user",
          "type": "address"
        },
        {
          "indexed": false,
          "internalType": "uint256",
          "name": "amount",
          "type": "uint256"
        }
      ],
      "name": "TokensRedeemed",
      "type": "event"
    },
    {
      "inputs": [],
      "name": "admin",
      "outputs": [
        {
          "internalType": "address",
          "name": "",
          "type": "address"
        }
      ],
      "stateMutability": "view",
      "type": "function"
    },
    {
      "inputs": [
        {
          "internalType": "address",
          "name": "_address",
          "type": "address"
        }
      ],
      "name": "checkRewardsBalance",
      "outputs": [
        {
          "internalType": "uint256",
          "name": "",
          "type": "uint256"
        }
      ],
      "stateMutability": "view",
      "type": "function"
    },
    {
      "inputs": [
        {
          "internalType": "string",
          "name": "description",
          "type": "string"
        },
        {
          "internalType": "uint256",
          "name": "points",
          "type": "uint256"
        },
        {
          "internalType": "address payable",
          "name": "_address",
          "type": "address"
        }
      ],
      "name": "declareAction",
      "outputs": [],
      "stateMutability": "nonpayable",
      "type": "function"
    },
    {
      "inputs": [
        {
          "internalType": "address",
          "name": "user",
          "type": "address"
        }
      ],
      "name": "getUserActions",
      "outputs": [
        {
          "components": [
            {
              "internalType": "uint256",
              "name": "actionId",
              "type": "uint256"
            },
            {
              "internalType": "string",
              "name": "description",
              "type": "string"
            },
            {
              "internalType": "uint256",
              "name": "rewardPoints",
              "type": "uint256"
            },
            {
              "internalType": "bool",
              "name": "isValidated",
              "type": "bool"
            },
            {
              "internalType": "address",
              "name": "user_address",
              "type": "address"
            }
          ],
          "internalType": "struct EcologicalRewardsSystem.Action[]",
          "name": "",
          "type": "tuple[]"
        }
      ],
      "stateMutability": "view",
      "type": "function"
    },
    {
      "inputs": [
        {
          "internalType": "uint256",
          "name": "amount",
          "type": "uint256"
        },
        {
          "internalType": "address",
          "name": "_address",
          "type": "address"
        }
      ],
      "name": "redeemTokens",
      "outputs": [],
      "stateMutability": "nonpayable",
      "type": "function"
    },
    {
      "inputs": [
        {
          "internalType": "address",
          "name": "",
          "type": "address"
        }
      ],
      "name": "rewardsBalance",
      "outputs": [
        {
          "internalType": "uint256",
          "name": "",
          "type": "uint256"
        }
      ],
      "stateMutability": "view",
      "type": "function"
    },
    {
      "inputs": [
        {
          "internalType": "address",
          "name": "",
          "type": "address"
        },
        {
          "internalType": "uint256",
          "name": "",
          "type": "uint256"
        }
      ],
      "name": "userActions",
      "outputs": [
        {
          "internalType": "uint256",
          "name": "actionId",
          "type": "uint256"
        },
        {
          "internalType": "string",
          "name": "description",
          "type": "string"
        },
        {
          "internalType": "uint256",
          "name": "rewardPoints",
          "type": "uint256"
        },
        {
          "internalType": "bool",
          "name": "isValidated",
          "type": "bool"
        },
        {
          "internalType": "address",
          "name": "user_address",
          "type": "address"
        }
      ],
      "stateMutability": "view",
      "type": "function"
    },
    {
      "inputs": [
        {
          "internalType": "address",
          "name": "user",
          "type": "address"
        },
        {
          "internalType": "uint256",
          "name": "actionIndex",
          "type": "uint256"
        }
      ],
      "name": "validateAction",
      "outputs": [],
      "stateMutability": "nonpayable",
      "type": "function"
    }
  ],
  "bytecode": "0x6080604052348015600f57600080fd5b5033600260006101000a81548173ffffffffffffffffffffffffffffffffffffffff021916908373ffffffffffffffffffffffffffffffffffffffff16021790555061173c806100606000396000f3fe608060405234801561001057600080fd5b50600436106100885760003560e01c8063cd73b12b1161005b578063cd73b12b14610129578063d5f9708814610159578063f680738214610189578063f851a440146101a557610088565b80630d4278f31461008d578063896bdac8146100a9578063a000ffc1146100d9578063b9d205321461010d575b600080fd5b6100a760048036038101906100a29190610bb9565b6101c3565b005b6100c360048036038101906100be9190610bf9565b610466565b6040516100d09190610c35565b60405180910390f35b6100f360048036038101906100ee9190610bb9565b61047e565b604051610104959493929190610d0a565b60405180910390f35b61012760048036038101906101229190610ed7565b610586565b005b610143600480360381019061013e9190610bf9565b61073a565b6040516101509190610c35565b60405180910390f35b610173600480360381019061016e9190610bf9565b610782565b60405161018091906110f5565b60405180910390f35b6101a3600480360381019061019e9190611117565b610937565b005b6101ad610aeb565b6040516101ba9190611157565b60405180910390f35b600260009054906101000a900473ffffffffffffffffffffffffffffffffffffffff1673ffffffffffffffffffffffffffffffffffffffff163373ffffffffffffffffffffffffffffffffffffffff1614610253576040517f08c379a000000000000000000000000000000000000000000000000000000000815260040161024a906111e4565b60405180910390fd5b6000600160008473ffffffffffffffffffffffffffffffffffffffff1673ffffffffffffffffffffffffffffffffffffffff16815260200190815260200160002082815481106102a6576102a5611204565b5b906000526020600020906004020190508060030160009054906101000a900460ff1615610308576040517f08c379a00000000000000000000000000000000000000000000000000000000081526004016102ff9061127f565b60405180910390fd5b60018160030160006101000a81548160ff02191690831515021790555080600201546000808573ffffffffffffffffffffffffffffffffffffffff1673ffffffffffffffffffffffffffffffffffffffff168152602001908152602001600020600082825461037791906112ce565b9250508190555080600001548373ffffffffffffffffffffffffffffffffffffffff167f2a1daed003c9c9134d1a449f658f14e0950bb8c07e474ea796123ee1f4fedcd783600201546040516103cd9190610c35565b60405180910390a38273ffffffffffffffffffffffffffffffffffffffff167f538d2df00ff910be5f1c709ba7a8040d3d32240563a8d153a4f13fbceabe33c26000808673ffffffffffffffffffffffffffffffffffffffff1673ffffffffffffffffffffffffffffffffffffffff168152602001908152602001600020546040516104599190610c35565b60405180910390a2505050565b60006020528060005260406000206000915090505481565b6001602052816000526040600020818154811061049a57600080fd5b9060005260206000209060040201600091509150508060000154908060010180546104c490611331565b80601f01602080910402602001604051908101604052809291908181526020018280546104f090611331565b801561053d5780601f106105125761010080835404028352916020019161053d565b820191906000526020600020905b81548152906001019060200180831161052057829003601f168201915b5050505050908060020154908060030160009054906101000a900460ff16908060030160019054906101000a900473ffffffffffffffffffffffffffffffffffffffff16905085565b6003600081548092919061059990611362565b919050555060006040518060a0016040528060035481526020018581526020018481526020016000151581526020018373ffffffffffffffffffffffffffffffffffffffff168152509050600160008373ffffffffffffffffffffffffffffffffffffffff1673ffffffffffffffffffffffffffffffffffffffff16815260200190815260200160002081908060018154018082558091505060019003906000526020600020906004020160009091909190915060008201518160000155602082015181600101908161066c9190611556565b506040820151816002015560608201518160030160006101000a81548160ff02191690831515021790555060808201518160030160016101000a81548173ffffffffffffffffffffffffffffffffffffffff021916908373ffffffffffffffffffffffffffffffffffffffff16021790555050508173ffffffffffffffffffffffffffffffffffffffff167fe53ffe0400fce9140a2c05beb0b4a375bf15be906339000b81f472f6f1543f3f600354868660405161072c93929190611628565b60405180910390a250505050565b60008060008373ffffffffffffffffffffffffffffffffffffffff1673ffffffffffffffffffffffffffffffffffffffff168152602001908152602001600020549050919050565b6060600160008373ffffffffffffffffffffffffffffffffffffffff1673ffffffffffffffffffffffffffffffffffffffff168152602001908152602001600020805480602002602001604051908101604052809291908181526020016000905b8282101561092c57838290600052602060002090600402016040518060a00160405290816000820154815260200160018201805461082090611331565b80601f016020809104026020016040519081016040528092919081815260200182805461084c90611331565b80156108995780601f1061086e57610100808354040283529160200191610899565b820191906000526020600020905b81548152906001019060200180831161087c57829003601f168201915b50505050508152602001600282015481526020016003820160009054906101000a900460ff161515151581526020016003820160019054906101000a900473ffffffffffffffffffffffffffffffffffffffff1673ffffffffffffffffffffffffffffffffffffffff1673ffffffffffffffffffffffffffffffffffffffff1681525050815260200190600101906107e3565b505050509050919050565b816000808373ffffffffffffffffffffffffffffffffffffffff1673ffffffffffffffffffffffffffffffffffffffff1681526020019081526020016000205410156109b8576040517f08c379a00000000000000000000000000000000000000000000000000000000081526004016109af906116b2565b60405180910390fd5b816000808373ffffffffffffffffffffffffffffffffffffffff1673ffffffffffffffffffffffffffffffffffffffff1681526020019081526020016000206000828254610a0691906116d2565b925050819055508073ffffffffffffffffffffffffffffffffffffffff167fcdd4c59de26b3f8623e6012ab9bc32a995eda3452d89c941fc8af6b74276ad3883604051610a539190610c35565b60405180910390a28073ffffffffffffffffffffffffffffffffffffffff167f538d2df00ff910be5f1c709ba7a8040d3d32240563a8d153a4f13fbceabe33c26000808473ffffffffffffffffffffffffffffffffffffffff1673ffffffffffffffffffffffffffffffffffffffff16815260200190815260200160002054604051610adf9190610c35565b60405180910390a25050565b600260009054906101000a900473ffffffffffffffffffffffffffffffffffffffff1681565b6000604051905090565b600080fd5b600080fd5b600073ffffffffffffffffffffffffffffffffffffffff82169050919050565b6000610b5082610b25565b9050919050565b610b6081610b45565b8114610b6b57600080fd5b50565b600081359050610b7d81610b57565b92915050565b6000819050919050565b610b9681610b83565b8114610ba157600080fd5b50565b600081359050610bb381610b8d565b92915050565b60008060408385031215610bd057610bcf610b1b565b5b6000610bde85828601610b6e565b9250506020610bef85828601610ba4565b9150509250929050565b600060208284031215610c0f57610c0e610b1b565b5b6000610c1d84828501610b6e565b91505092915050565b610c2f81610b83565b82525050565b6000602082019050610c4a6000830184610c26565b92915050565b600081519050919050565b600082825260208201905092915050565b60005b83811015610c8a578082015181840152602081019050610c6f565b60008484015250505050565b6000601f19601f8301169050919050565b6000610cb282610c50565b610cbc8185610c5b565b9350610ccc818560208601610c6c565b610cd581610c96565b840191505092915050565b60008115159050919050565b610cf581610ce0565b82525050565b610d0481610b45565b82525050565b600060a082019050610d1f6000830188610c26565b8181036020830152610d318187610ca7565b9050610d406040830186610c26565b610d4d6060830185610cec565b610d5a6080830184610cfb565b9695505050505050565b600080fd5b600080fd5b7f4e487b7100000000000000000000000000000000000000000000000000000000600052604160045260246000fd5b610da682610c96565b810181811067ffffffffffffffff82111715610dc557610dc4610d6e565b5b80604052505050565b6000610dd8610b11565b9050610de48282610d9d565b919050565b600067ffffffffffffffff821115610e0457610e03610d6e565b5b610e0d82610c96565b9050602081019050919050565b82818337600083830152505050565b6000610e3c610e3784610de9565b610dce565b905082815260208101848484011115610e5857610e57610d69565b5b610e63848285610e1a565b509392505050565b600082601f830112610e8057610e7f610d64565b5b8135610e90848260208601610e29565b91505092915050565b6000610ea482610b25565b9050919050565b610eb481610e99565b8114610ebf57600080fd5b50565b600081359050610ed181610eab565b92915050565b600080600060608486031215610ef057610eef610b1b565b5b600084013567ffffffffffffffff811115610f0e57610f0d610b20565b5b610f1a86828701610e6b565b9350506020610f2b86828701610ba4565b9250506040610f3c86828701610ec2565b9150509250925092565b600081519050919050565b600082825260208201905092915050565b6000819050602082019050919050565b610f7b81610b83565b82525050565b600082825260208201905092915050565b6000610f9d82610c50565b610fa78185610f81565b9350610fb7818560208601610c6c565b610fc081610c96565b840191505092915050565b610fd481610ce0565b82525050565b610fe381610b45565b82525050565b600060a0830160008301516110016000860182610f72565b50602083015184820360208601526110198282610f92565b915050604083015161102e6040860182610f72565b5060608301516110416060860182610fcb565b5060808301516110546080860182610fda565b508091505092915050565b600061106b8383610fe9565b905092915050565b6000602082019050919050565b600061108b82610f46565b6110958185610f51565b9350836020820285016110a785610f62565b8060005b858110156110e357848403895281516110c4858261105f565b94506110cf83611073565b925060208a019950506001810190506110ab565b50829750879550505050505092915050565b6000602082019050818103600083015261110f8184611080565b905092915050565b6000806040838503121561112e5761112d610b1b565b5b600061113c85828601610ba4565b925050602061114d85828601610b6e565b9150509250929050565b600060208201905061116c6000830184610cfb565b92915050565b7f5365756c206c2761646d696e69737472617465757220706575742076616c696460008201527f6572206c657320616374696f6e732e0000000000000000000000000000000000602082015250565b60006111ce602f83610c5b565b91506111d982611172565b604082019050919050565b600060208201905081810360008301526111fd816111c1565b9050919050565b7f4e487b7100000000000000000000000000000000000000000000000000000000600052603260045260246000fd5b7f436574746520616374696f6e206573742064656a612076616c6964652e000000600082015250565b6000611269601d83610c5b565b915061127482611233565b602082019050919050565b600060208201905081810360008301526112988161125c565b9050919050565b7f4e487b7100000000000000000000000000000000000000000000000000000000600052601160045260246000fd5b60006112d982610b83565b91506112e483610b83565b92508282019050808211156112fc576112fb61129f565b5b92915050565b7f4e487b7100000000000000000000000000000000000000000000000000000000600052602260045260246000fd5b6000600282049050600182168061134957607f821691505b60208210810361135c5761135b611302565b5b50919050565b600061136d82610b83565b91507fffffffffffffffffffffffffffffffffffffffffffffffffffffffffffffffff820361139f5761139e61129f565b5b600182019050919050565b60008190508160005260206000209050919050565b60006020601f8301049050919050565b600082821b905092915050565b60006008830261140c7fffffffffffffffffffffffffffffffffffffffffffffffffffffffffffffffff826113cf565b61141686836113cf565b95508019841693508086168417925050509392505050565b6000819050919050565b600061145361144e61144984610b83565b61142e565b610b83565b9050919050565b6000819050919050565b61146d83611438565b6114816114798261145a565b8484546113dc565b825550505050565b600090565b611496611489565b6114a1818484611464565b505050565b5b818110156114c5576114ba60008261148e565b6001810190506114a7565b5050565b601f82111561150a576114db816113aa565b6114e4846113bf565b810160208510156114f3578190505b6115076114ff856113bf565b8301826114a6565b50505b505050565b600082821c905092915050565b600061152d6000198460080261150f565b1980831691505092915050565b6000611546838361151c565b9150826002028217905092915050565b61155f82610c50565b67ffffffffffffffff81111561157857611577610d6e565b5b6115828254611331565b61158d8282856114c9565b600060209050601f8311600181146115c057600084156115ae578287015190505b6115b8858261153a565b865550611620565b601f1984166115ce866113aa565b60005b828110156115f6578489015182556001820191506020850194506020810190506115d1565b86831015611613578489015161160f601f89168261151c565b8355505b6001600288020188555050505b505050505050565b600060608201905061163d6000830186610c26565b818103602083015261164f8185610ca7565b905061165e6040830184610c26565b949350505050565b7f536f6c646520696e737566666973616e742e0000000000000000000000000000600082015250565b600061169c601283610c5b565b91506116a782611666565b602082019050919050565b600060208201905081810360008301526116cb8161168f565b9050919050565b60006116dd82610b83565b91506116e883610b83565b9250828203905081811115611700576116ff61129f565b5b9291505056fea26469706673582212204c9eb6bb5f273787498cbb22f599f72ff0fddd094214bcb868e41eb8041af6a964736f6c634300081b0033",
  "linkReferences": {},
  "deployedLinkReferences": {}
}